{
  "transactions": [
    {
      "hash": "0x4655c331ba20c1c018ee44e90bed4d576214c0a3299a0fe371c46f0271618b20",
      "transactionType": "CALL",
      "contractName": null,
      "contractAddress": "0xfa66d86a5efc7632070b1f0b1c639c69a7e7d8c5",
      "function": "setSigner(address,bool)",
      "arguments": [
        "0xFE503EE14863F6aCEE10BCdc66aC5e2301b3A946",
        "true"
      ],
      "transaction": {
        "from": "0x826e0bb2276271efdf2a500597f37b94f6c153ba",
        "to": "0xfa66d86a5efc7632070b1f0b1c639c69a7e7d8c5",
        "gas": "0x101b0",
        "value": "0x0",
        "input": "0x31cb6105000000000000000000000000fe503ee14863f6acee10bcdc66ac5e2301b3a9460000000000000000000000000000000000000000000000000000000000000001",
        "nonce": "0x96",
        "chainId": "0x2105"
      },
      "additionalContracts": [],
      "isFixedGasLimit": false
    }
  ],
  "receipts": [
    {
      "status": "0x1",
      "cumulativeGasUsed": "0xb9fbb9",
      "logs": [
        {
          "address": "0xfa66d86a5efc7632070b1f0b1c639c69a7e7d8c5",
          "topics": [
            "0xfc4acb499491cd850a8a21ab98c7f128850c0f0e5f1a875a62b7fa055c2ecf19"
          ],
          "data": "0x000000000000000000000000fe503ee14863f6acee10bcdc66ac5e2301b3a9460000000000000000000000000000000000000000000000000000000000000001",
          "blockHash": "0x9c1af6c4946d81166836d1901fa90f5f8eb26b65db4301f48cd7295716650765",
          "blockNumber": "0x2060bdc",
          "blockTimestamp": "0x6896749b",
          "transactionHash": "0x4655c331ba20c1c018ee44e90bed4d576214c0a3299a0fe371c46f0271618b20",
          "transactionIndex": "0x3c",
          "logIndex": "0xc3",
          "removed": false
        }
      ],
      "logsBloom": "0x00000000000000000000000000000000000400000000000000000000000000000008000000000000000000000000000000000000000000000000000000000000000000000000000000000000000000100000000000000000000000000000000000000000000000000000000000000000000000000000000000000000000000008000000000000000000000000000000000000000040000000000000000000000000000000000000000000000000000000000000000000000000000000000000000000000000000000000000000000000000000000000000000000000000000000000000000000000000000000000000000000000000001000000000000000000",
      "type": "0x2",
      "transactionHash": "0x4655c331ba20c1c018ee44e90bed4d576214c0a3299a0fe371c46f0271618b20",
      "transactionIndex": "0x3c",
      "blockHash": "0x9c1af6c4946d81166836d1901fa90f5f8eb26b65db4301f48cd7295716650765",
      "blockNumber": "0x2060bdc",
      "gasUsed": "0xba90",
      "effectiveGasPrice": "0x10a94db",
      "from": "0x826e0bb2276271efdf2a500597f37b94f6c153ba",
      "to": "0xfa66d86a5efc7632070b1f0b1c639c69a7e7d8c5",
      "contractAddress": null,
      "l1BaseFeeScalar": "0x8dd",
      "l1BlobBaseFee": "0x1",
      "l1BlobBaseFeeScalar": "0x101c12",
      "l1Fee": "0x55a03a2c",
      "l1GasPrice": "0x1795f6dd",
      "l1GasUsed": "0x640"
    }
  ],
  "libraries": [],
  "pending": [],
  "returns": {
    "factory": {
      "internal_type": "contract ERC4337CloneFactory",
      "value": "0xd4284c988b218d8E24a268159c2805a98525FB65"
    },
    "paymaster": {
      "internal_type": "contract SignaturePaymaster",
      "value": "0xfa66d86a5Efc7632070b1F0b1C639C69a7E7D8C5"
    },
    "implementation": {
      "internal_type": "contract EnsoReceiver",
      "value": "0x241617016230fb1B08fE9AE3A10d308f526FF95C"
    }
  },
  "timestamp": 1754690716,
  "chain": 8453,
  "commit": "f5b5952"
}